:1000000000308A00E12800002808F80127020318C0
:100010000C282708F7001828F7010830A900A70DB9
:10002000F70D280877020318F700F80DA90B0F2821
:1000300008002030221E3030A3002108F700A11F45
:100040002928F709F70A7708A1002D30A300A21785
:1000500022142108A7006430A80004207708A1001A
:1000600030307807A4002108A7000A30A800042037
:1000700030307707A60030307807A5002308F70056
:100080003030240203194828A214A21B22155C2830
:100090002308A4002030A30030302502031954287F
:1000A0002214A21BA2145C28031D2214031D5C2829
:1000B0002408A5002030A40022196328A21867286C
:1000C00022186B286F2823080C1E64289900240826
:1000D0000C1E6828990025080C1E6C28990026081B
:1000E0000C1E70289900080021308400831300083A
:1000F000031988280130F800F701F70B7D28F80B69
:100100007C284A30F700F70B83288628800B7A2852
:1001100008003030A1001830A20019200514F83072
:100120008316850064308312A10074200510F83016
:100130008316850083128510F8308316850083129C
:100140000515F830831685000A308312A10074204B
:10015000FA283130A1001830A20019200510F8301B
:100160008316850083128514F83083168500643069
:100170008312A10074208510F83083168500831245
:100180000511F830831685000A308312A10074200F
:1001900002293230A1001830A20019200510F830D1
:1001A0008316850083128510F8308316850083122C
:1001B0000511F830831685000A308312A1007420DF
:1001C0000A2903081F398300193083169900A630C5
:1001D000980090308312980007309F0083138C1E84
:1001E0000D298C1EF1281A08A0002008703C031D60
:1001F000FD2889280A30A10074202008693C031DCD
:100200000529A9280A30A100742020087A3C031D82
:100210000D29C9280A30A10074200A30A1007420D9
:04022000EF28630060
:02400E00213F50
:00000001FF
;PIC16F628A
;CRC=60C2  CREATED="21-mai-21 22:15"
